:080003001204C71204A080FBE7
:0604F20000007F03DFFEA5
:0104F80022E1
:10045B00EF1FAA0670011E4A6013E4FCFDC3ED9466
:0D046B0078EC940550EA0DBD00010C80F006
:010478002261
:060416008F828E83A90510
:10041C00E4FBEBC3995015C292AF82AE8312045B1E
:0C042C00D292AF82AE8312045B0B80E61C
:0104380022A1
:10048F00438E805389F0758A50758CFBC28DD28C48
:01049F00223A
:0804E20012048FD2A9D2AF224F
:03000B000202B13D
:0D02B100C0E0C0F0C083C082C0D075D0088E
:1002BE00051AE51A70020519FFAE19E4FCFD7B90D4
:1002CE007A01F9F8C31204795009751900751A00EC
:1002DE00120113051CE51C7002051BFFAE1BE4FC8E
:1002EE00FD7B64FAF9F8C31204795009751B007589
:0802FE001C0012000E1203B7F0
:0B030600D0D0D082D083D0F0D0E03205
:0B04AF00011000C10201140001150043
:0804EA00E4F516F517F51822E0
:1003B700E510B51602D2B1E510B51702D2B2E510B5
:1003C700B51802D2B30510E510B4FF15E4F510E532
:1003D700166002C2B1E5176002C2B2E5186002C238
:0103E700B362
:0103E80022F2
:040383007DFF7F0279
:1003870074162FF8E6FEEDD39E4021EE94C7400A7F
:10039700EE94FD50050606068014EEC394A04009AE
:1003A700EE94FE500406068005068002D322C3227F
:04034B00E4FD7F024C
:10034F0074162FF8E6FEEDC39E5025C3741694C79E
:10035F0074009400400974162FF816161680137443
:10036F00162FF8E6C394A0400416168005168002D7
:04037F00D322C322A0
:0403E9007D057F030C
:1003ED0074648DF084FD0512E51270020511C39D34
:1003FD00E51194004011E4F511F5120513EFD395B5
:08040D00135004E4F51322C3AF
:0104150022C4
:10022B00E4FCEF24FE602D14605024027070AD1EB0
:10023B00E4FF20000512034F800312038750010CCB
:10024B00AD1F7F0220010512034F8003120387505D
:10025B004D0C804AAD1EE4FF20000512034F8003B6
:10026B0012038750010CAD1F7F0120010512034FB4
:10027B00800312038750270C8024AD1E7F022000C1
:10028B000512034F800312038750010CAD1F7F0132
:10029B0020010512034F800312038750010CBC028F
:0502AB0003D38001C334
:0102B000222B
:10043900E4FCFDFF12034F50010CE4FD7F011203A0
:100449004F50010C12034B50010CBC0303D3800124
:01045900C3DF
:01045A00227F
:1001130030020302019EE51414601C14602D146068
:100123003914604E14605B240570687DFFE4FF1290
:1001330003875067051422E4FDFF12034F505C7DD3
:10014300147F021203ED5053051422120383504B04
:10015300E4FF120387504405142212034B503C7DE5
:10016300FF1F1203875034E4FD1F12034F502C0569
:1001730014221203835024E4FD1F12034F501C0565
:10018300142212034B50147D141203ED500D051469
:0B019300D202221204395003E4F514DC
:01019E00223E
:10000E00200203020112E515B40800400302010AA2
:10001E00900025F828287302003D02004C02007162
:10002E000200940200AD0200C10200DA0200FB7D64
:10003E00FF7F0112038740030201120515227DAADC
:10004E007F0112034F40030201127DFF0F1203873F
:10005E0040030201127D050F1203ED40030201124F
:10006E00051522C200751E55C201E4F51F7F03124D
:10007E00022B40030201127D55E4FF120387400359
:10008E00020112051522D200751EFFD201751FAA9C
:10009E007F0112022B506D1203E95068051522C222
:1000AE0000751E55C201E4F51F7F0112022B50543C
:1000BE00051522D200751EFFD201751FFF7F021299
:1000CE00022B50401203E9503B051522C200751E4B
:1000DE0033C201751F337F0212022B502712038386
:1000EE0050227D050F1203ED501A05152212043908
:1000FE0050121203E9500D0515C202221204395096
:04010E0003E4F515FC
:0101120022CA
:0F04A000D2B01204F21204F220B00375C760222A
:0904C7001203111204BB0204D05F
:0C04BB00C2927F207E0312045BD29222CA
:0904D0001204EA1204E20204D94C
:100311007580FF7590FF75A0FF75B0FF75C0FF7503
:10032100C8FF75E8FF75F8FFE4F594F593F592F5CC
:1003310091F596F595F5B2F5B1F5B4F5B3F5CAF5C4
:0A034100C9F5CCF5CBF5E2F5E12299
:0904D9007D037F327E000204164F
:0300000002019F5B
:0C019F00787FE4F6D8FD7581200201E6AF
:10047900EB9FF5F0EA9E42F0E99D42F0EC6480C8FA
:0604890064809845F0229A
:1001AB00020003E493A3F8E493A34003F68001F267
:1001BB0008DFF48029E493A3F85407240CC8C33355
:1001CB00C4540F4420C8834004F456800146F6DF24
:1001DB00E4800B01020408102040809004AFE47E01
:1001EB00019360BCA3FF543F30E509541FFEE49319
:1001FB00A360010ECF54C025E060A840B8E493A3E0
:10020B00FAE493A3F8E493A3C8C582C8CAC583CA0A
:10021B00F0A3C8C582C8CAC583CADFE9DEE780BEC2
:0104BA000041
:00000001FF
