:0800030012049A12046880FB4C
:0604930000007F03DFFE04
:010499002240
:10044700438E805389F0758A50758CFBC28DD28C90
:010457002282
:08048300120447D2A9D2AF22F6
:03000B000202B13D
:1002B100C0E0C0F0C083C082C0D075D000C000C013
:0D02C10001C002C003C004C005C006C00794
:1002CE000512E51270020511FFAE11E4FCFD7B90E4
:1002DE007A01F9F8C3120431500975110075120034
:1002EE001201130514E51470020513FFAE13E4FC9E
:1002FE00FD7B64FAF9F8C3120431500975130075C9
:08030E00140012000E12037529
:10031600D007D006D005D004D003D002D001D0003B
:0B032600D0D0D082D083D0F0D0E032E5
:0B047700010800C102010C00010D0093
:08048B00E4F50EF50FF5102257
:10037500E508C3950E4002D2B1E508C3950F4002CA
:10038500D2B2E508C395104002D2B30508E508B41A
:10039500FF15E4F508E50E6002C2B1E50F6002C283
:0703A500B2E5106002C2B3D3
:0103AC00222E
:0403AD007DFF7F024F
:1003B100740E2FF8E6FEEDD39E4022EED394AF40AB
:1003C1000AEE94FD50050606068014EED394E14032
:1003D10009EE94FE500406068005068002D322C36E
:0103E10022F9
:04033100E4FD7F0266
:10033500740E2FF8E6FEEDC39E5031740E94AF7423
:10034500009400400F740E2FF8E6D3940340051671
:100355001616801A740E2FF8E6FED394E1400AEEC5
:10036500D39402400416168005168002D322C322B8
:0403E2007D057F0313
:1003E60074648DF084FD050AE50A70020509C39D53
:1003F600E50994004011E4F509F50A050BEFD395DC
:080406000B5004E4F50B22C3C6
:01040E0022CB
:10022B00E4FCEF24FE602D14605024027070AD16B8
:10023B00E4FF20000512033580031203B150010CBB
:10024B00AD177F0220010512033580031203B15055
:10025B004D0C804AAD16E4FF2000051203358003D8
:10026B001203B150010CAD177F01200105120335AC
:10027B0080031203B150270C8024AD167F0220009F
:10028B000512033580031203B150010CAD177F012A
:10029B0020010512033580031203B150010CBC027F
:0502AB0003D38001C334
:0102B000222B
:10040F00E4FCFDFF12033550010CE4FD7F011203E4
:10041F003550010C12033150010CBC0303D3800182
:01042F00C309
:0104300022A9
:1001130030020302019EE50C14601C14602D146070
:100123003914604E14605B240570687DFFE4FF1290
:1001330003B15067050C22E4FDFF120335505C7DCB
:10014300147F021203E65053050C221203AD504BE9
:10015300E4FF1203B15044050C22120331503C7DDD
:10016300FF1F1203B15034E4FD1F120335502C0559
:100173000C221203AD5024E4FD1F120335501C055D
:100183000C2212033150147D141203E6500D050C9A
:0B019300D2022212040F5003E4F50C0E
:01019E00223E
:10000E00200203020112E50DB40800400302010AAA
:10001E00900025F828287302003D02004C02007162
:10002E000200940200AD0200C10200DA0200FB7D64
:10003E00FF7F011203B14003020112050D227DAABA
:10004E007F0112033540030201127DFF0F1203B12F
:10005E0040030201127D050F1203E6400302011256
:10006E00050D22C200751655C201E4F5177F031265
:10007E00022B40030201127D55E4FF1203B140032F
:10008E00020112050D22D2007516FFD2017517AAB4
:10009E007F0112022B506D1203E25068050D22C231
:1000AE0000751655C201E4F5177F0112022B50544C
:1000BE00050D22D2007516FFD2017517FF7F0212B1
:1000CE00022B50401203E2503B050D22C200751662
:1000DE0033C2017517337F0212022B50271203AD64
:1000EE0050227D050F1203E6501A050D2212040F41
:1000FE0050121203E2500D050DC2022212040F50CF
:04010E0003E4F50D04
:0101120022CA
:0F046800D2B012049312049320B00375C7602220
:06049A001204580204A048
:0604A00012048B0204832C
:1004580075B0FF75C8FFE4F5B2F5B1F5CAF5C92264
:0300000002019F5B
:0C019F00787FE4F6D8FD7581200201E6AF
:10043100EB9FF5F0EA9E42F0E99D42F0EC6480C842
:0604410064809845F022E2
:1001AB00020003E493A3F8E493A34003F68001F267
:1001BB0008DFF48029E493A3F85407240CC8C33355
:1001CB00C4540F4420C8834004F456800146F6DF24
:1001DB00E4800B0102040810204080900477E47E39
:1001EB00019360BCA3FF543F30E509541FFEE49319
:1001FB00A360010ECF54C025E060A840B8E493A3E0
:10020B00FAE493A3F8E493A3C8C582C8CAC583CA0A
:10021B00F0A3C8C582C8CAC583CADFE9DEE780BEC2
:010482000079
:00000001FF
