:0800030012057212054B80FB8F
:06059D0000007F03DFFEF9
:0105A3002235
:10050600EF1FAA0670011E4A6013E4FCFDC3ED94BA
:0D05160078EC940550EA0DBD00010C80F05A
:0105230022B5
:0604E3008F828E83A90543
:1004E900E4FBEBC3995015C292AF82AE83120506A5
:0C04F900D292AF82AE831205060B80E6A3
:0105050022D3
:10053A00438E805389F0758A50758CFBC28DD28C9C
:01054A00228E
:08058D0012053AD2A9D2AF22F7
:03000B0002036F7E
:0D036F00C0E0C0F0C083C082C0D075D008CF
:10037C000511E51170020510FFAE10E4FCFD7B08C1
:10038C00FAF9F8C312052450067510007511000512
:10039C0013E51370020512FFAE12E4FCFD7B907A9C
:1003AC0001F9F8C3120524500975120075130012D7
:1003BC00000E0515E51570020514FFAE14E4FCFDE6
:1003CC007B64FAF9F8C312052450097514007515ED
:0703DC000012014B12045C4A
:0B03E300D0D0D082D083D0F0D0E03228
:0B055A00011E00C10201160001170085
:08059500E4F518F519F51A222E
:10045C00781EE6FFB51802D2B1EFB51902D2B2EF91
:10046C00B51A02D2B3781E06E6B4FF14E4F6E5180A
:10047C006002C2B1E5196002C2B2E51A6002C2B3F1
:01048C00224D
:10048D0074182FF8E6FEEDD39E4021EE94C7400A76
:10049D00EE94FD50050606068014EEC394A04009A7
:1004AD00EE94FE500406068005068002D322C32278
:1004280074182FF8E6FEEDC39E5025C3741894C7C0
:1004380074009400400974182FF816161680137467
:10044800182FF8E6C394A0400416168005168002FB
:04045800D322C322C6
:0C025100D200751C32D201751DE67F0240
:10025D00E4FCEF24FE602D14605024027070AD1C80
:10026D00E4FF200005120428800312048D50010CB8
:10027D00AD1D7F02200105120428800312048D504C
:10028D004D0C804AAD1CE4FF2000051204288003AC
:10029D0012048D50010CAD1D7F01200105120428A3
:1002AD00800312048D50270C8024AD1C7F0220008A
:1002BD0005120428800312048D50010CAD1D7F0121
:1002CD00200105120428800312048D50010CBC027C
:0502DD0003D38001C302
:0102E20022F9
:1004BD00E4FCFDFF12042850010CE4FD7F01120441
:1004CD002850010CE4FD7F0212042850010CBC03DE
:0504DD0003D38001C300
:0104E20022F7
:10000E0030020302014AE516B41000400302014219
:10001E00900025F828287302005502006402007231
:10002E000200810200900200A70200BE0200C90277
:10003E0000D10200E50200EC0201000201140201EF
:10004E001C0201300201387DFFE4FF12048D4003D3
:10005E0002014A051622E4FDFF12042840030201A4
:10006E004A0516227DFF7F0212048D400302014ACB
:10007E000516227D507F02120428400302014A0217
:10008E00013DD200751C78D201751DC87F01120288
:10009E005D400302014A051622D200751CE6D2010C
:1000AE00751DFF7F0112025D400302014A051622F3
:1000BE001204BD400302014A051622120251507C61
:1000CE00051622D200751CFFC201E4F51D7F031236
:1000DE00025D50680516221204BD50608051D20098
:1000EE00751C50D201751DC87F0112025D504D0561
:1000FE001622D200751CE6D201751DFF7F01120279
:10010E005D50390516221204BD5031051622D2005B
:10011E00751C14D201751DFF7F0312025D501D0563
:10012E0016221204BD5015051622120251500D054D
:0C013E0016D202221204BD5003E4F51694
:01014A002292
:10014B00200203020250E517B40C004003020248E0
:10015B00900162F82828730201860201950201A41E
:10016B000201B30201CA0201DE0201F20201FF0227
:10017B0002060202120202260202327DFF7F0112E8
:10018B00048D40030202500517227D787F01120473
:10019B002840030202500517227D3CE4FF12048D18
:1001AB004003020250051722C200E4F51CD2017570
:1001BB001D5A7F0212025D4003020250051722D224
:1001CB0000751CFFD201751DF07F0312025D507587
:1001DB00051722C200751CE6C201751D8C7F031228
:1001EB00025D5061051722D200751CFF120256509A
:1001FB00540517221204BD504C803D7DFF7F021227
:10020B00048D5041051722D200751CFFC201751DCC
:10021B00787F0112025D502D0517227DB4E4FF1289
:10022B0004285021051722C200751CB4D201751D7C
:10023B00FF7F0212025D500D0517C202221204BD90
:05024B005003E4F5176B
:01025000228B
:0F054B00D2B012059D12059D20B00375C7602226
:090572001203EE12056602057B7E
:0C056600C2927F207E03120506D2922272
:09057B0012059512058D0205849C
:1003EE007580FF7590FF75A0FF75B0FF75C0FF7526
:1003FE00C8FF75E8FF75F8FFE4F594F593F592F5EF
:10040E0091F596F595F5B2F5B1F5B4F5B3F5CAF5E6
:0A041E00C9F5CCF5CBF5E2F5E122BB
:090584007D037F327E000204E3D6
:030000000202E316
:0C02E300787FE4F6D8FD75812002032A24
:10052400EB9FF5F0EA9E42F0E99D42F0EC6480C84E
:0605340064809845F022EE
:1002EF00020003E493A3F8E493A34003F68001F222
:1002FF0008DFF48029E493A3F85407240CC8C33310
:10030F00C4540F4420C8834004F456800146F6DFDE
:10031F00E4800B010204081020408090055AE47E0F
:10032F00019360BCA3FF543F30E509541FFEE493D3
:10033F00A360010ECF54C025E060A840B8E493A39A
:10034F00FAE493A3F8E493A3C8C582C8CAC583CAC5
:10035F00F0A3C8C582C8CAC583CADFE9DEE780BE7D
:010565000095
:00000001FF
